:100000000C945D000C9485000C9485000C94850084
:100010000C9485000C9485000C9485000C9485004C
:100020000C9485000C9485000C9485000C9485003C
:100030000C9485000C9485000C9485000C9485002C
:100040000C9449030C9485000C94B9030C9493030D
:100050000C9485000C9485000C9485000C9485000C
:100060000C9485000C94850000000008000201003B
:100070000003040700000000000000000000000072
:10008000250028002B0000000000240027002A0083
:10009000040404040404040402020202020203032E
:1000A0000303030301020408102040800102040836
:1000B0001020010204081020EB0311241FBECFEF13
:1000C000D8E0DEBFCDBF11E0A0E0B1E0EEEEFBE096
:1000D00002C005900D92A236B107D9F722E0A2E640
:1000E000B1E001C01D92A836B207E1F710E0CDE5FE
:1000F000D0E004C02197FE010E94EF05CC35D10766
:10010000C9F70E949C040C94F5050C94000090E043
:10011000FC01EC55FF4F249180579F4FFC018491C7
:10012000882399F090E0880F991FFC01EA57FF4F50
:10013000A591B491FC01E458FF4F859194918FB73C
:10014000F894EC91E22BEC938FBF089590E0FC01C2
:10015000E859FF4F2491FC01EC55FF4F3491FC010D
:10016000E057FF4FE491EE23C9F0222339F023300A
:1001700001F1A8F4213019F1223029F1F0E0EE0F5D
:10018000FF1FE458FF4FA591B4918FB7F894EC91FD
:10019000611126C030953E233C938FBF08952730D0
:1001A000A9F02830C9F0243049F7809180008F7D74
:1001B00003C0809180008F7780938000DFCF84B56B
:1001C0008F7784BDDBCF84B58F7DFBCF8091B0006E
:1001D0008F778093B000D2CF8091B0008F7DF9CF20
:1001E0003E2BDACF3FB7F89480916F019091700168
:1001F000A0917101B091720126B5A89B05C02F3F57
:1002000019F00196A11DB11D3FBFBA2FA92F982F3C
:100210008827BC01CD01620F711D811D911D42E037
:10022000660F771F881F991F4A95D1F70895AF92DF
:10023000BF92CF92DF92EF92FF920F931F93CF93D3
:10024000DF936C017B018B01040F151FEB015E0135
:10025000AE18BF08C017D10759F06991D601ED91CA
:10026000FC910190F081E02DC6010995892B79F769
:10027000C501DF91CF911F910F91FF90EF90DF901B
:10028000CF90BF90AF900895FC01538D448D252FE2
:1002900030E0842F90E0821B930B541710F0CF9620
:1002A000089501970895FC01918D828D981761F052
:1002B000A28DAE0FBF2FB11D5D968C91928D9F5F69
:1002C0009F73928F90E008958FEF9FEF0895FC0148
:1002D000918D828D981731F0828DE80FF11D858DFB
:1002E00090E008958FEF9FEF0895FC01918D228D8E
:1002F000892F90E0805C9F4F821B91098F73992713
:10030000089583E791E00E94750121E0892B09F4AB
:1003100020E0822F089580E090E0892B29F00E9450
:10032000810181110C9400000895FC01A48DA80F97
:10033000B92FB11DA35ABF4F2C91848D90E0019627
:100340008F739927848FA689B7892C93A089B18947
:100350008C91837080648C93938D848D981306C0E8
:100360000288F389E02D80818F7D80830895EF924C
:10037000FF920F931F93CF93DF93EC0181E0888F5F
:100380009B8D8C8D98131AC0E889F989808185FF2F
:1003900015C09FB7F894EE89FF896083E889F989D1
:1003A00080818370806480839FBF81E090E0DF91D3
:1003B000CF911F910F91FF90EF900895F62E0B8D26
:1003C00010E00F5F1F4F0F731127E02E8C8D8E11E1
:1003D0000CC00FB607FCFACFE889F989808185FF48
:1003E000F5CFCE010E949501F1CFEB8DEC0FFD2FE3
:1003F000F11DE35AFF4FF0829FB7F8940B8FEA8903
:10040000FB8980818062CFCFCF93DF93EC01888D11
:100410008823B9F0AA89BB89E889F9898C9185FD7F
:1004200003C0808186FD0DC00FB607FCF7CF8C910D
:1004300085FFF2CF808185FFEDCFCE010E9495012F
:10044000E9CFDF91CF910895CF92DF92EF92FF92A3
:100450000F931F93CF93DF9300D0CDB7DEB769839F
:100460004A83880F991F0091660210916702000F5E
:10047000111FE0E1F2E09F012051324020173107C7
:1004800014F41192F8CF2981FC01E05FFD4F218324
:100490008A81808360E0809164020E94A600101629
:1004A000110604F501501109F801E05FFD4FE080ED
:1004B000D0906202C090600288E0F82E6E2D661F18
:1004C0006627661F8C2D0E94A600EE0C61E08D2D24
:1004D0000E94A60060E08D2D0E94A600FA94F11003
:1004E000EDCFDDCF61E0809164020F900F90DF913E
:1004F000CF911F910F91FF90EF90DF90CF900C94D0
:10050000A600EF92FF920F931F93CF937C018C0173
:1005100083E0000F111F8A95E1F7005E1D4FC1E0D7
:10052000F80111928F0140E06C2FC7010E94240254
:10053000CF5FC930A9F7CF911F910F91FF90EF9036
:1005400008952F923F924F925F926F927F928F9277
:100550009F92AF92BF92CF92DF92EF92FF920F9352
:100560001F93CF93DF9300D01F92CDB7DEB77B01EF
:100570004A0129835B0123E0AA0CBB1C2A95E1F701
:100580006B0121E0C21AD108160133E0220C331CA2
:100590003A95E1F76AE070E00E94C7053C0143E04C
:1005A000660C771C4A95E1F72B0153E0440C551C6F
:1005B0005A95E1F71B821A82EA81FB81E60DF71D4D
:1005C000E050FF4F008110E0098002C015950795AB
:1005D0000A94E2F781E08816910441F48A819B81B4
:1005E0008230910511F0049709F401608091660250
:1005F00090916702E816F906D4F4EA81FB81E40DD4
:10060000F51DE050FF4F408150E0098002C0559534
:1006100047950A94E2F7EA81FB81EA0DFB1DE05F52
:10062000FD4F408B6A816F5FC7010E942402809159
:10063000660290916702C816D9066CF4EA81FB81C4
:10064000E20DF31DE05FFD4F008B402F6A816F5F6D
:10065000C6010E9424028A819B8101969B838A8322
:10066000089709F0A9CF0F900F900F90DF91CF91CD
:100670001F910F91FF90EF90DF90CF90BF90AF90C0
:100680009F908F907F906F905F904F903F902F90B2
:1006900008951F920F920FB60F9211242F933F933C
:1006A0008F939F93AF93BF9380916B0190916C0157
:1006B000A0916D01B0916E0130916A0123E0230F8A
:1006C0002D3758F50196A11DB11D20936A01809325
:1006D0006B0190936C01A0936D01B0936E018091BA
:1006E0006F0190917001A0917101B091720101961A
:1006F000A11DB11D80936F0190937001A0937101B2
:10070000B0937201BF91AF919F918F913F912F91C3
:100710000F900FBE0F901F90189526E8230F02969A
:10072000A11DB11DD2CF1F920F920FB60F921124AF
:100730002F933F934F935F936F937F938F939F93E9
:10074000AF93BF93EF93FF9383E791E00E949501EE
:10075000FF91EF91BF91AF919F918F917F916F9199
:100760005F914F913F912F910F900FBE0F901F906F
:1007700018951F920F920FB60F9211242F938F93FB
:100780009F93EF93FF93E0918301F0918401808127
:10079000E0918901F0918A0182FD1BC090818091D6
:1007A0008C018F5F8F7320918D01821741F0E09152
:1007B0008C01F0E0ED58FE4F958F80938C01FF91F6
:1007C000EF919F918F912F910F900FBE0F901F90DF
:1007D00018958081F4CFCF93DF9310927601109219
:1007E000750188EE93E0A0E0B0E0809377019093EC
:1007F0007801A0937901B0937A0184E591E0909318
:1008000074018093730185EC90E090938001809354
:100810007F0184EC90E0909382018093810180ECD1
:1008200090E0909384018093830181EC90E0909319
:1008300086018093850182EC90E0909388018093FB
:10084000870186EC90E090938A0180938901109251
:100850008C0110928D0110928E0110928F01C8E0D0
:10086000D0E0D0936102C09360028AE090E0909360
:1008700063028093620289E090E090936502809326
:10088000640284E090E0909367028093660288E0BF
:100890000E948700809162020E948700809164021A
:1008A0000E94870061E0809164020E94A600D093BC
:1008B0006102C0936002E0E2F2E0119282E0E03671
:1008C000F807D9F7D0E0C0E0809166029091670206
:1008D000C817D90774F540E06FE0CE010E942402EA
:1008E0008091660290916702C817D9072CF447E0FF
:1008F0006BE0CE010E94240240E069E0CE010E943C
:1009000024028091660290916702C817D9071CF4EF
:10091000CE010E9481028091660290916702C81701
:10092000D9072CF440E06CE0CE010E94240221960D
:10093000CBCFDF91CF910895789484B5826084BD48
:1009400084B5816084BD85B5826085BD85B58160D3
:1009500085BD80916E00816080936E001092810051
:10096000809181008260809381008091810081600C
:1009700080938100809180008160809380008091CD
:10098000B10084608093B1008091B0008160809359
:10099000B00080917A00846080937A0080917A0020
:1009A000826080937A0080917A00816080937A00DF
:1009B00080917A00806880937A001092C100E09163
:1009C0008301F091840182E08083E0917F01F091C6
:1009D00080011082E0918101F09182018FEC80838F
:1009E00010928B01E0918701F091880186E080836D
:1009F000E0918501F0918601808180618083E091A2
:100A00008501F0918601808188608083E091850175
:100A1000F0918601808180688083E0918501F0916A
:100A2000860180818F7D8083D0E0C0E08091660266
:100A300090916702C817D9072CF441E06CE0CE0111
:100A40000E9424028091660290916702C817D9071C
:100A50002CF440E06AE0CE010E94240280916602FC
:100A600090916702C817D9071CF4CE010E94810239
:100A70002196C430D105D1F692E0892E912CCCE399
:100A8000D0E028E1A22EB12C00E010E00E94F2009C
:100A90002B013C0184EFC82EDD24D394E12CF12CF2
:100AA0000E94F2006419750986099709683E73402F
:100AB00081059105A8F321E0C21AD108E108F108E7
:100AC00088EE480E83E0581E611C711CC114D104CD
:100AD000E104F10429F78091680190916901019680
:100AE000B4010E94C705FC019093690180936801DD
:100AF000892B51F5E0906401F0906501209162012D
:100B00003091630180916601909167010196BE0169
:100B10000E94C7059093670180936601892BA1F419
:100B2000C7010196BE010E94C7059093650180939D
:100B30006401892B49F4C9010196B5010E94C705DA
:100B4000909363018093620130E020E0AF0163E0A5
:100B500070E080916201909163010E94A10221E006
:100B600030E050E040E061E070E0809164019091FD
:100B700065010E94A1020115110509F487CF0E94A9
:100B80008101882309F482CF0E9400007FCF97FB68
:100B9000072E16F4009407D077FD09D00E94DB05DC
:100BA00007FC05D03EF4909581959F4F0895709570
:100BB00061957F4F0895AA1BBB1B51E107C0AA1F77
:100BC000BB1FA617B70710F0A61BB70B881F991FEE
:100BD0005A95A9F780959095BC01CD010895EE0F27
:0E0BE000FF1F0590F491E02D0994F894FFCFCB
:100BEE0078C4A4B4948C78001070101010107C008F
:100BFE00788404788080FC0078840438048478003B
:100C0E0010305090FC101000FC80B8C404847800A2
:100C1E00788480F884847800F888101020202000D2
:100C2E00788484FC848478007884847C04847800BE
:100C3E0000000000B70117014401040275015301C1
:020C4E0067013C
:00000001FF
